:020000040800F2
:100000000050002065100008B50E0008B70E00086B
:10001000B90E0008BB0E0008BD0E0008000000006D
:10002000000000000000000000000000BF0E0008FB
:10003000C10E000800000000C30E0008C50E000835
:10004000AD100008AD100008AD100008AD1000089C
:10005000AD100008AD100008AD100008AD1000088C
:10006000AD100008AD100008AD100008AD1000087C
:10007000AD100008AD100008AD100008AD1000086C
:10008000AD100008AD100008AD100008AD1000085C
:10009000AD100008AD100008AD100008AD1000084C
:1000A000AD100008AD100008AD100008AD1000083C
:1000B000AD100008AD100008AD100008AD1000082C
:1000C000AD100008AD100008AD100008AD1000081C
:1000D000AD100008AD100008AD100008AD1000080C
:1000E000AD100008AD100008AD10000800000000C1
:1000F0000000000000000000000000000000000000
:0C01000000000000000000005FF808F1A3
:1001100070B54FF0FF0C4CF4E06C1CEA11541DBF9D
:100120001CEA135594EA0C0F95EA0C0F00F0DEF868
:100130002C4481EA030621EA4C5123EA4C5350EA4D
:10014000013518BF52EA033541F4801143F480139E
:1001500038D0A0FB02CE4FF00005E1FB02E506F02F
:100160000042E0FB03E54FF00006E1FB03569CF084
:10017000000F18BF4EF0010EA4F1FF04B6F5007F8A
:1001800064F5407404D25FEA4E0E6D4146EB0606FC
:1001900042EAC62141EA55514FEAC52040EA5E5085
:1001A0004FEACE2EB4F1FD0C88BFBCF5E06F1ED82F
:1001B000BEF1004F08BF5FEA500E50F1000041EB66
:1001C000045170BD06F0004646EA010140EA020013
:1001D00081EA0301B4EB5C04C2BFD4EB0C0541EA35
:1001E000045170BD41F480114FF0000E013C00F34A
:1001F000AB8014F1360FDEBF002001F0004170BD6E
:10020000C4F10004203C35DA0C341BDC04F1140486
:10021000C4F1200500FA05F320FA04F001FA05F212
:1002200040EA020001F0004221F0004110EBD370DF
:1002300021FA04F642EB06015EEA430E08BF20EA0B
:10024000D37070BDC4F10C04C4F1200500FA04F3AE
:1002500020FA05F001FA04F240EA020001F0004140
:1002600010EBD37041F100015EEA430E08BF20EAB3
:10027000D37070BDC4F1200500FA05F24EEA020EFB
:1002800020FA04F301FA05F243EA020321FA04F02A
:1002900001F0004121FA04F220EA020000EBD370E1
:1002A0005EEA430E08BF20EAD37070BD94F0000FE1
:1002B0000FD101F00046400041EB010111F4801F15
:1002C00008BF013CF7D041EA060195F0000F18BFC6
:1002D000704703F00046520043EB030313F4801F02
:1002E00008BF013DF7D043EA0603704794EA0C0FBC
:1002F0000CEA135518BF95EA0C0F0CD050EA4106D2
:1003000018BF52EA4306D1D181EA030101F000414E
:100310004FF0000070BD50EA410606BF1046194676
:1003200052EA430619D094EA0C0F02D150EA013682
:1003300013D195EA0C0F05D152EA03361CBF1046C3
:1003400019460AD181EA030101F0004141F0FE4162
:1003500041F470014FF0000070BD41F0FE4141F4E6
:10036000780170BD81F0004102E000BF83F00043DE
:1003700030B54FEA41044FEA430594EA050F08BF40
:1003800090EA020F1FBF54EA000C55EA020C7FEA04
:10039000645C7FEA655C00F0E2804FEA5454D4EB81
:1003A0005555B8BF6D420CDD2C4480EA020281EA4B
:1003B000030382EA000083EA010180EA020281EA83
:1003C0000303362D88BF30BD11F0004F4FEA0131D5
:1003D0004FF4801C4CEA113102D0404261EB4101E4
:1003E00013F0004F4FEA03334CEA133302D052426A
:1003F00063EB430394EA050F00F0A780A4F1010426
:10040000D5F1200E0DDB02FA0EFC22FA05F280185F
:1004100041F1000103FA0EF2801843FA05F3594145
:100420000EE0A5F120050EF1200E012A03FA0EFCC4
:1004300028BF4CF0020C43FA05F3C01851EBE371EE
:1004400001F0004507D54FF0000EDCF1000C7EEB0B
:1004500000006EEB0101B1F5801F1BD3B1F5001F49
:100460000CD349085FEA30004FEA3C0C04F1010468
:100470004FEA445212F5800F80F09A80BCF1004F91
:1004800008BF5FEA500C50F1000041EB045141EA13
:10049000050130BD5FEA4C0C404141EB0101013CDC
:1004A00028BFB1F5801FE9D291F0000F04BF0146CB
:1004B0000020B1FA81F308BF2033A3F10B03B3F19D
:1004C00020020CDA0C3208DD02F1140CC2F10C022D
:1004D00001FA0CF021FA02F10CE002F11402D8BF8B
:1004E000C2F1200C01FA02F120FA0CFCDCBF41EA57
:1004F0000C019040E41AA2BF01EB0451294330BD26
:100500006FEA04041F3C1CDA0C340EDC04F1140402
:10051000C4F1200220FA04F001FA02F340EA0300D9
:1005200021FA04F345EA030130BDC4F10C04C4F11F
:10053000200220FA02F001FA04F340EA03002946FF
:1005400030BD21FA04F0294630BD94F0000F83F449
:10055000801306BF81F480110134013D4EE77FEA2C
:10056000645C18BF7FEA655C29D094EA050F08BF78
:1005700090EA020F05D054EA000C04BF1946104659
:1005800030BD91EA030F1EBF0021002030BD5FEA9D
:10059000545C05D14000494128BF41F0004130BDC5
:1005A00014F580043CBF01F5801130BD01F0004519
:1005B00045F0FE4141F470014FF0000030BD7FEA8C
:1005C000645C1ABF194610467FEA655C1CBF0B4687
:1005D000024650EA013406BF52EA033591EA030F9E
:1005E00041F4002130BD00BF90F0000F04BF002196
:1005F000704730B54FF4806404F132044FF00005C9
:100600004FF0000150E700BF90F0000F04BF002141
:10061000704730B54FF4806404F1320410F00045A7
:1006200048BF40424FF000013EE700BF42004FEAA2
:10063000E2014FEA31014FEA02701FBF12F07F431F
:1006400093F07F4F81F06051704732F07F4208BFD6
:10065000704793F07F4F04BF41F40021704730B5DD
:100660004FF4607401F0004521F000411CE700BF29
:1006700050EA010208BF704730B54FF000050AE0AC
:1006800050EA010208BF704730B511F0004502D5AD
:10069000404261EB41014FF4806404F132045FEAAF
:1006A000915C3FF4D8AE4FF003025FEADC0C18BF58
:1006B00003325FEADC0C18BF033202EBDC02C2F14A
:1006C000200300FA03FC20FA02F001FA03FE40EADC
:1006D0000E0021FA02F11444BDE600BF4FEA4102C8
:1006E000B2F1E04324BFB3F5001CDCF1FE5C0DD990
:1006F00001F0004C4FEAC0024CEA5070B2F1004FDA
:1007000040EB830008BF20F00100704711F0804FDC
:1007100021D113F13872BCBF01F00040704741F4A1
:1007200080114FEA5252C2F11802C2F1200C10FAA5
:100730000CF320FA02F018BF40F001004FEAC12389
:100740004FEAD32303FA0CFC40EA0C0023FA02F32D
:100750004FEA4303CCE77FEA625307D150EA013303
:100760001EBF4FF0FE4040F44000704701F00040D3
:1007700040F0FE4040F40000704700BF80F00040B1
:1007800002E000BF81F0004142001FBF5FEA410369
:1007900092EA030F7FEA226C7FEA236C6AD04FEA69
:1007A0001262D2EB1363C1BFD218414048404140AE
:1007B000B8BF5B42192B88BF704710F0004F40F460
:1007C000000020F07F4018BF404211F0004F41F47C
:1007D000000121F07F4118BF494292EA030F3FD048
:1007E000A2F1010241FA03FC10EB0C00C3F120035B
:1007F00001FA03F100F0004302D5494260EB4000EA
:10080000B0F5000F13D3B0F1807F06D340084FEA54
:10081000310102F10102FE2A51D2B1F1004F40EB49
:10082000C25008BF20F0010040EA030070474900B1
:1008300040EB0000013A28BFB0F5000FEDD2B0FA4E
:1008400080FCACF1080CB2EB0C0200FA0CF0AABF71
:1008500000EBC25052421843BCBFD040184370470F
:1008600092F0000F81F4000106BF80F40000013215
:10087000013BB5E74FEA41037FEA226C18BF7FEAEC
:10088000236C21D092EA030F04D092F0000F08BF2E
:100890000846704790EA010F1CBF0020704712F015
:1008A0007F4F04D1400028BF40F00040704712F154
:1008B00000723CBF00F50000704700F0004343F0B9
:1008C000FE4040F4000070477FEA226216BF0846EF
:1008D0007FEA23630146420206BF5FEA412390EAB2
:1008E000010F40F4800070474FF0000304E000BFA8
:1008F00010F0004348BF40425FEA000C08BF704759
:1009000043F0964301464FF000001CE050EA01021C
:1009100008BF70474FF000030AE000BF50EA010231
:1009200008BF704711F0004302D5404261EB41011E
:100930005FEA010C02BF84460146002043F0B64343
:1009400008BFA3F18053A3F50003BCFA8CF2083A68
:10095000A3EBC25310DB01FA02FC634400FA02FC71
:10096000C2F12002BCF1004F20FA02F243EB020078
:1009700008BF20F00100704702F1200201FA02FCDA
:10098000C2F1200250EA4C0021FA02F243EB0200CD
:1009900008BF20EADC7070474FF0FF3C06E000BF64
:1009A0004FF0010C02E000BF4FF0010C4DF804CDF8
:1009B0004FEA40024FEA41037FEA226C18BF7FEA08
:1009C000236C11D001B052EA530C18BF90EA010F0A
:1009D00058BFB2EB030088BFC81738BF6FEAE17099
:1009E00018BF40F0010070477FEA226C02D15FEA35
:1009F000402C05D17FEA236CE4D15FEA412CE1D0A1
:100A00005DF8040B704700BF844608466146FFE767
:100A10000FB5FFF7C9FF002848BF10F1000F0FBD49
:100A20004DF808EDFFF7F4FF0CBF012000205DF842
:100A300008FB00BF4DF808EDFFF7EAFF34BF0120C7
:100A400000205DF808FB00BF4DF808EDFFF7E0FF60
:100A500094BF012000205DF808FB00BF4DF808EDB1
:100A6000FFF7D2FF94BF012000205DF808FB00BF14
:100A70004DF808EDFFF7C8FF34BF012000205DF8F6
:100A800008FB00BF42000ED2B2F1FE4F0BD34FF075
:100A90009E03B3EB126209D44FEA002343F00043F4
:100AA00023FA02F070474FF00000704712F1610F17
:100AB00001D1420202D14FF0FF3070474FF00000E9
:100AC000704700BF4FF0FF3C06E000BF4FF0010C45
:100AD00002E000BF4FF0010C4DF804CD4FEA410C8D
:100AE0007FEA6C5C4FEA430C18BF7FEA6C5C1BD05A
:100AF00001B050EA410C0CBF52EA430C91EA030FDB
:100B000002BF90EA020F0020704710F1000F91EA37
:100B1000030F58BF994208BF90422CBFD8176FEA05
:100B2000E37040F0010070474FEA410C7FEA6C5CD3
:100B300002D150EA013C07D14FEA430C7FEA6C5CDA
:100B4000D6D152EA033CD3D05DF8040B704700BF06
:100B50008446104662468C461946634600E000BF54
:100B600001B5FFF7B7FF002848BF10F1000F01BD26
:100B70004DF808EDFFF7F4FF0CBF012000205DF8F1
:100B800008FB00BF4DF808EDFFF7EAFF34BF012076
:100B900000205DF808FB00BF4DF808EDFFF7E0FF0F
:100BA00094BF012000205DF808FB00BF4DF808ED60
:100BB000FFF7CEFF94BF012000205DF808FB00BFC7
:100BC0004DF808EDFFF7C4FF34BF012000205DF8A9
:100BD00008FB00BF4FEA410212F5001215D211D5F1
:100BE0006FF47873B3EB625212D94FEAC12343F02A
:100BF000004343EA505311F0004F23FA02F018BFAC
:100C0000404270474FF00000704750EA013005D174
:100C100011F0004008BF6FF0004070474FF0000037
:100C2000704700BFF0B589B0002404940594069481
:100C300007942C4B9A6942F010029A619A6902F06B
:100C400010020092009A9A6942F020029A619A6911
:100C500002F020020192019A9A6942F004029A611C
:100C60009A6902F004020292029A9A6942F008021A
:100C70009A619B6903F008030393039B1A4F224672
:100C80004FF40051384600F0E1FB184D2246202178
:100C9000284600F0DBFB4FF4005304930126059631
:100CA00002240694079404A9384600F0BDFA04947F
:100CB0000594079404A9284600F0B6FA202304936B
:100CC00005960694079404A9284600F0ADFA4FF45F
:100CD000007304930594079404A9054800F0A4FA4E
:100CE00009B0F0BD001002400010014000080140B2
:100CF000000C01400000000038B50446416800685F
:100D0000FFF742FD054660601349FFF7A7FE20B1DB
:100D100011492846FFF736FD60606068FFF786FCE2
:100D20000BA3D3E90023FFF7F3F9FFF7D7FCFFF795
:100D30007DFC01F02FFA0022084BFFF719FB00227F
:100D4000074BFFF7E5F9FFF7C9FC38BDAFF30080AB
:100D5000399D52A246DF913F0000B4430000F03FAE
:100D600000406F4072B6FEE700B591B02822002126
:100D700006A801F0BDF900230193029303930493A5
:100D80000593012206924FF4803307930A920222C0
:100D90000D920E934FF4E0130F9306A800F072FB30
:100DA00080B90F23019302210291002303934FF492
:100DB00080620492059301A800F096FD20B911B05D
:100DC0005DF804FBFFF7CEFFFFF7CCFF00B589B05D
:100DD00000F094F9FFF7C8FFFFF724FF00F0C8F810
:100DE0001F4C0021204601F0BBF80421204601F0F1
:100DF000B7F80821204601F0B3F80C21204601F095
:100E0000AFF8184A07924FF07C53069316490591A4
:100E100004931649039102930192009306A8FFF7E9
:100E20006BFF0F4C2568FFF72DFE686304A8FFF7E2
:100E300063FF2568FFF726FEA86302A8FFF75CFFA3
:100E40002568FFF71FFEE8636846FFF755FF246833
:100E5000FFF718FE2064002000F074F9DEE700BF01
:100E60000C0000200000B4420000F041000070427D
:100E700082B00E4B9A6942F001029A619A6902F0BF
:100E800001020092009ADA6942F08052DA61DB696D
:100E900003F080530193019B054A536823F0E063FC
:100EA00043F00073536002B0704700BF001002406F
:100EB00000000140FEE7FEE7FEE7FEE7FEE77047C1
:100EC0007047704708B500F02BF908BD7047000067
:100ED0000268094B9A4200D0704782B003F5033391
:100EE000DA6942F00202DA61DB6903F0020301937E
:100EF000019B02B0704700BF0004004010B586B0EF
:100F0000002302930393049305930268154B9A42BE
:100F100001D006B010BD03F503339A6942F0040214
:100F20009A619A6902F004020092009A9A6942F06A
:100F300008029A619B6903F008030193019BC02397
:100F4000029302240394059402A9074800F06CF967
:100F5000032302930394059402A9044800F064F962
:100F6000D7E700BF0004004000080140000C01402A
:100F700000B58FB000230A930B930C930D93089345
:100F800009930193029303930493059306930793A4
:100F90003248334A026047224260836040F2F312D3
:100FA000C26003618023836100F048FE00283CD1C9
:100FB0004FF480530A930AA9284800F043FF002801
:100FC00036D1264800F066FE002834D1002308936D
:100FD000099308A9214801F031F878BB60230193F7
:100FE0000022029202230393059201A91B4800F0FC
:100FF000AFFE30BB0023039304220DEB0201174820
:1010000000F0A6FE00BB082201A9144800F0A0FED3
:10101000E8B90C2201A9114800F09AFED0B90F4896
:10102000FFF76CFF0FB05DF804FBFFF79BFEBFE717
:10103000FFF798FEC5E7FFF795FEC7E7FFF792FEBB
:10104000CCE7FFF78FFED5E7FFF78CFEDBE7FFF776
:1010500089FEDEE7FFF786FEE1E700BF0C00002017
:1010600000040040FFF732FF0B480C490C4A0023F4
:1010700002E0D458C4500433C4188C42F9D3094A4E
:10108000094C002301E013600432A242FBD301F0BB
:101090000BF8FFF79BFE7047000000200C000020BB
:1010A000E03600080C00002058000020FEE7000099
:1010B00010B504460E4B18784FF47A73B3FBF0F377
:1010C0000C4A1068B0FBF3F000F09AF868B90F2CE6
:1010D00001D901200AE0002221464FF0FF3000F044
:1010E00057F8054B1C60002000E0012010BD00BF38
:1010F00004000020000000200800002008B5074A76
:10110000136843F010031360032000F02FF80F2042
:10111000FFF7CEFFFFF7ACFE002008BD0020024025
:10112000034A1168034B1B780B441360704700BFE0
:101130005400002004000020014B1868704700BFD5
:101140005400002038B50446FFF7F6FF0546B4F119
:10115000FF3F02D0044B1B781C44FFF7EDFF401B00
:10116000A042FAD338BD00BF04000020074AD3686C
:1011700023F4E0631B041B0C000200F4E060034353
:1011800043F0BF6343F40033D360704700ED00E0E9
:1011900000B5194BDB68C3F30223C3F1070CBCF1A4
:1011A000040F28BF4FF0040C03F1040EBEF1060F2C
:1011B00018D9033B4FF0FF3E0EFA0CFC21EA0C015C
:1011C00099400EFA03F322EA0303194300280BDBCC
:1011D0000901C9B200F1604000F5614080F80013D8
:1011E0005DF804FB0023E5E700F00F000901C9B238
:1011F000024B1954F4E700BF00ED00E014ED00E0ED
:101200000138B0F1807F0BD24FF0E0235861054ADE
:10121000F02182F823100020986107221A6170479C
:101220000120704700ED00E070B582B00024A446B4
:10123000A6E0804DAA4210D007D97F4DAA420CD01B
:1012400005F58035AA4208D013E0A5F58015AA421D
:1012500003D005F57025AA4207D18A68002A58D024
:10126000012A51D04361082403E0A5F58015AA4264
:10127000F3D0BEF1FF0F4ED80646BEF1FF0F4CD89B
:101280004FEA8C0233680F25954023EA050304FAE0
:1012900002F2134333604B6813F0805F6ED0674BEC
:1012A0009A6942F001029A619B6903F0010301937C
:1012B000019B4FEA9C02951C614B53F825600CF092
:1012C00003039D000F23AB4026EA03065D4B9842C3
:1012D00029D003F58063984200F08E8003F5806387
:1012E000984200F08B8003F58063984219D0042364
:1012F0001AE0CC68BDE7CC680434BAE7CC6808349F
:10130000B7E7CC680C34B4E703610824B1E70024E4
:10131000AFE70424ADE7061DAFE7ACF10802920089
:10132000B0E7032300E00023AB4033430232444DD7
:1013300045F822304B6813F4801F61D0424A93680D
:1013400043EA0E0393604B6813F4001F5ED03E4ADD
:10135000D36843EA0E03D3604B6813F4003F5BD0BD
:10136000394A536843EA0E0353604B6813F4803FD5
:1013700058D0354A136843EA0E0313600CF1010C90
:101380000A6832FA0CF353D0012303FA0CF302EA91
:10139000030E33EA0202F1D14A68122A3FF649AF3E
:1013A000122A3FF666AF01A555F822F05B1200083D
:1013B000F3120008FD1200080F1300087312000852
:1013C00073120008731200087312000873120008E9
:1013D00073120008731200087312000873120008D9
:1013E00073120008731200087312000873120008C9
:1013F000F712000803130008012395E7022393E77F
:10140000114A936823EA0E0393609CE70E4AD3685F
:1014100023EA0E03D3609FE70B4A536823EA0E03C7
:101420005360A2E7084A136823EA0E031360A5E796
:1014300002B070BD00002210000031100010024008
:101440000000014000080140000401400AB10161B0
:10145000704709040161704782B0084B1B68084A55
:10146000A2FB03235B0A00FB03F3019300BF019B74
:101470005A1E0192002BF9D102B0704700000020E3
:10148000D34D6210002800F0F18170B582B004469F
:10149000036813F0010F2CD0994B5B6803F00C0329
:1014A000042B1DD0964B5B6803F00C03082B12D065
:1014B0006368B3F5803F41D0002B55D103F18043E1
:1014C00003F504331A6822F480321A601A6822F491
:1014D00080221A6037E08A4B5B6813F4803FE7D0C4
:1014E000874B1B6813F4003F03D06368002B00F0A8
:1014F000BF81236813F0020F75D0814B5B6813F036
:101500000C0F5FD07E4B5B6803F00C03082B54D0AC
:101510002369002B00F08A807A4B01221A60FFF7C2
:101520000BFE0546764B1B6813F0020F75D1FFF7D3
:1015300003FE401B0228F5D903209EE1704A136880
:1015400043F480331360636843B3FFF7F5FD05464A
:101550006B4B1B6813F4003FCBD1FFF7EDFD401B35
:101560006428F5D9032088E1B3F5A02F09D0644B96
:101570001A6822F480321A601A6822F480221A60F3
:10158000E1E703F18043A3F53C331A6842F480227B
:101590001A601A6842F480321A60D4E7FFF7CCFD73
:1015A0000546574B1B6813F4003FA2D0FFF7C4FD5C
:1015B000401B6428F5D903205FE1514B5B6813F4AD
:1015C000803FA5D14E4B1B6813F0020F03D0236957
:1015D000012B40F04F814A4A136823F0F8036169F8
:1015E00043EAC1031360236813F0080F33D0A369E3
:1015F000002B5CD0434B0122C3F88024FFF79CFDF5
:1016000005463F4B5B6A13F0020F21D1FFF794FDB3
:10161000401B0228F5D903202FE1394A136823F033
:10162000F803616943EAC1031360DCE7354B00222C
:101630001A60FFF781FD0546314B1B6813F0020F5E
:10164000D1D0FFF779FD401B0228F5D9032014E122
:101650000120FFF701FF236813F0040F00F09680CC
:10166000274BDB6913F0805F34D1254BDA6942F0F8
:101670008052DA61DB6903F080530193019B0125FD
:10168000214B1B6813F4807F26D0E368012B3DD0EB
:10169000002B53D103F1804303F504331A6A22F07F
:1016A00001021A621A6A22F004021A6233E0154B30
:1016B0000022C3F88024FFF73FFD0546104B5B6A0C
:1016C00013F0020FC7D0FFF737FD401B0228F5D9F2
:1016D0000320D2E00025D3E70B4A136843F480735C
:1016E0001360FFF729FD0646074B1B6813F4807F44
:1016F000CBD1FFF721FD801B6428F5D90320BCE086
:101700000010024000004242007000405F4A136A2D
:1017100043F001031362E36833B3FFF70DFD0646A0
:101720005A4B1B6A13F0020F2FD1FFF705FD801BE8
:1017300041F288339842F3D903209EE0052B09D06B
:10174000524B1A6A22F001021A621A6A22F004024B
:101750001A62E0E74D4B1A6A42F004021A621A6AF2
:1017600042F001021A62D6E7FFF7E6FC0646474B55
:101770001B6A13F0020F08D0FFF7DEFC801B41F25A
:1017800088339842F3D9032077E0E5B9E369002B69
:1017900072D03E4A526802F00C02082A56D0022B40
:1017A00017D03B4B00221A66FFF7C6FC0446374BA6
:1017B0001B6813F0007F47D0FFF7BEFC001B022818
:1017C000F5D9032059E0314AD36923F08053D3611E
:1017D000DCE72F4B00221A66FFF7AEFC05462B4BC9
:1017E0001B6813F0007F06D0FFF7A6FC401B022801
:1017F000F5D9032041E0236AB3F5803F1AD023498D
:101800004B6823F47413226A606A024313434B60EB
:101810001F4B01221A66FFF78FFC04461B4B1B6807
:1018200013F0007F0ED1FFF787FC001B0228F5D9CB
:10183000032022E0154A536823F40033A1680B43C8
:101840005360DCE7002018E0002016E0012B16D0E2
:101850000E4B5B6803F48031226A914211D103F48C
:101860007013626A93420ED1002006E00120704797
:10187000012002E0012000E0002002B070BD012044
:10188000FBE70120F9E70120F7E700BF0010024065
:10189000000042420F4B5B6803F00C02082A01D0A3
:1018A0000D487047C3F383420C49885C13F4803FB2
:1018B0000BD0084B5B68C3F34043094AD35C064A2C
:1018C00002FB00F0B0FBF3F07047064B03FB00F0A7
:1018D000704700BF0010024000127A00F034000888
:1018E0000035000800093D00002800F0A08070B518
:1018F0000D460446524B1B6803F007038B420BD284
:101900004F4A136823F007030B431360136803F077
:1019100007038B4240F08D80236813F0020F17D02D
:1019200013F0040F04D0474A536843F4E063536054
:10193000236813F0080F04D0424A536843F46053FD
:101940005360404A536823F0F003A1680B4353608F
:10195000236813F0010F31D06368012B20D0022BD4
:1019600025D0384A126812F0020F64D035494A680F
:1019700022F0030213434B60FFF7DEFB0646314BB8
:101980005B6803F00C036268B3EB820F16D0FFF7BD
:10199000D3FB801B41F288339842F0D9032045E005
:1019A000284A126812F4003FE0D101203EE0254AA7
:1019B000126812F0007FD9D1012037E0204B1B685C
:1019C00003F00703AB420AD91D4A136823F007034B
:1019D0002B431360136803F00703AB422DD1236838
:1019E00013F0040F06D0174A536823F4E063E1684C
:1019F0000B435360236813F0080F07D0114A536854
:101A000023F46053216943EAC1035360FFF742FFA7
:101A10000C4B5B68C3F303130B4AD35CD8400B4BEE
:101A200018600B4B1868FFF743FB002070BD0120C6
:101A300070470120FAE70120F8E70120F6E700BF30
:101A40000020024000100240E034000800000020A6
:101A50000800002070B4036A026A22F001020262E8
:101A60004668826922F073020C6844EA020523F09A
:101A700002028B6813430D4CA04209D00B4CA042CC
:101A80000DD0466085614A684263036270BC70474E
:101A900023F00803CA68134323F00403EEE726F497
:101AA00040764A6932438E691643EAE7002C0140CA
:101AB00030B4036A026A22F4807202624568C26925
:101AC00022F073020C68224323F400738C6843EA0B
:101AD00004230F4CA04209D00D4CA0420ED045600B
:101AE000C2614A68C263036230BC704723F400637A
:101AF000CC6843EA042323F48063EDE725F44055E2
:101B00004C6945EA04158C6945EA0415E7E700BF0E
:101B1000002C014030B4036A026A22F4805202624F
:101B20004468C26922F4E6420D6842EA052223F4C1
:101B300000538D6843EA0533074DA84206D0446040
:101B4000C2614A680264036230BC704724F4804476
:101B50004D6944EA8514F2E7002C014010B4036A91
:101B6000046A24F001040462846924F0F00C4CEA55
:101B7000021223F00A030B438261036210BC704718
:101B800010B4036A046A24F010040462846924F423
:101B9000704C4CEA023223F0A00343EA0113826145
:101BA000036210BC7047836823F070030B4343F05B
:101BB000070383607047704703681F4A90420AD04A
:101BC000B0F1804F07D0A2F59432904203D002F5D5
:101BD0008062904203D123F070034A681343164A8F
:101BE00090420AD0B0F1804F07D0A2F594329042D3
:101BF00003D002F58062904203D123F44073CA6897
:101C0000134323F080034A69134303608B68C36264
:101C10000B688362084B98420AD001234361036931
:101C200013F0010F03D0036923F001030361704730
:101C30000B690363F1E700BF002C014040B310B50E
:101C4000044690F83D30F3B1022384F83D3021463C
:101C500051F8040BFFF7B0FF012384F8463084F8F5
:101C60003E3084F83F3084F8403084F8413084F8C6
:101C7000423084F8433084F8443084F8453084F8A6
:101C80003D30002010BD80F83C30FFF721F9DBE744
:101C90000120704740B310B5044690F83D30F3B1D1
:101CA000022384F83D30214651F8040BFFF784FFEE
:101CB000012384F8463084F83E3084F83F3084F8BD
:101CC000403084F8413084F8423084F8433084F85E
:101CD000443084F8453084F83D30002010BD80F851
:101CE0003C30FFF768FFDBE70120704730B4036A40
:101CF000026A22F0100202624468826922F4E6421B
:101D00000D6842EA052223F020038D6843EA05139B
:101D10000E4DA84209D00D4DA8420ED044608261FC
:101D20004A688263036230BC704723F08003CD6849
:101D300043EA051323F04003EDE724F440644D69C2
:101D400044EA85048D6944EA8504E7E7002C0140F4
:101D500038B590F83C30012B66D004460D4601237F
:101D600080F83C300C2A5AD8DFE802F0075959595C
:101D70001B5959593059595944000068FFF76AFEF8
:101D80002268936943F0080393612268936923F002
:101D9000040393612268936929690B4393610020CE
:101DA0003EE00068FFF7A2FF2268936943F40063F6
:101DB00093612268936923F4806393612268936935
:101DC000296943EA01239361002029E00068FFF7B5
:101DD0006FFE2268D36943F00803D3612268D36998
:101DE00023F00403D3612268D36929690B43D361CB
:101DF000002015E00068FFF78DFE2268D36943F4E8
:101E00000063D3612268D36923F48063D3612268BD
:101E1000D369296943EA0123D361002000E001204E
:101E2000002384F83C3038BD0220FCE710B48468FD
:101E300024F47F4C42EA03220A4342EA0C02826005
:101E400010BC704790F83C30012B78D010B5044698
:101E5000012380F83C30022380F83D30026893680B
:101E600023F47F4323F0770393600B68602B4CD0FF
:101E700029D8402B54D00CD9502B22D1CA6849689C
:101E80000068FFF76BFE50212068FFF78CFE0020F2
:101E900005E0202B0DD009D9302B0AD001200123D9
:101EA00084F83D30002384F83C3010BD0BB1102B7A
:101EB00005D119462068FFF776FE0020EFE70120E4
:101EC000EDE70120EBE7B3F5805F34D0B3F5005FB9
:101ED0000CD1CB684A6889680068FFF7A7FF2268C1
:101EE000936843F4804393600020D8E7702B24D19B
:101EF000CB684A6889680068FFF798FF2268936892
:101F000043F0770393600020C9E7CA684968006816
:101F1000FFF736FE60212068FFF745FE0020BEE790
:101F2000CA6849680068FFF719FE40212068FFF77A
:101F30003AFE0020B3E70020B1E70120AFE702201E
:101F4000704701F01F01012303FA01FC036A23EA31
:101F50000C030362036A02FA01F10B430362704748
:101F600010B50446084651BB94F83E30DBB2013B45
:101F700018BF0123002B5BD1002839D1022384F83C
:101F80003E30012201462068FFF7DBFF23682A4A22
:101F900093423DD02368284A93423ED0B3F1804F0C
:101FA0003BD0A2F59432934237D002F5806293423F
:101FB00033D01A6842F001021A60002039E0042987
:101FC00008D008290DD094F84130DBB2013B18BF8E
:101FD0000123CFE794F83F30DBB2013B18BF012368
:101FE000C8E794F84030DBB2013B18BF0123C1E7DA
:101FF000042805D0082807D0022384F84130C0E720
:10200000022384F83F30BCE7022384F84030B8E76D
:102010005A6C42F400425A64BCE79A6802F0070224
:10202000062A07D01A6842F001021A60002000E078
:10203000012010BD0020FCE7002C014090F83C304E
:10204000012B2CD010B4012380F83C30022380F8FF
:102050003D3003685A689C6822F0700C0A6842EAB6
:102060000C025A6003680F4A93420AD0B3F1804FC2
:1020700007D0A2F59432934203D002F580629342D6
:1020800004D124F080044A6814439C60012380F842
:102090003D30002380F83C30184610BC70470220C9
:1020A000704700BF002C014070B50D4E0D4D761BE2
:1020B000B61006D0002455F8043B01349847A642D8
:1020C000F9D1094E094D01F0FDF9761BB61006D085
:1020D000002455F8043B01349847A642F9D170BD5D
:1020E00000000000000000000000000000000000F0
:1020F000830730B548D0541E002A3FD00346CAB2E9
:1021000001E0013C3AD303F8012B9D07F9D1032CE0
:102110002DD9CDB245EA05250F2C45EA054536D91E
:10212000A4F1100222F00F0C03F1200EE6444FEA56
:10213000121C03F1100242E9045542E90255103223
:102140007245F8D10CF1010214F00C0F03EB0212EE
:1021500004F00F0C13D0ACF1040323F00303043399
:10216000134442F8045B9342FBD10CF003042CB1FE
:10217000CAB21C4403F8012B9C42FBD130BD64461B
:102180001346002CF4D1F9E703461446BFE71A467C
:10219000A446E0E710B5294C21F00043A34286B0E5
:1021A00020DD274A934209DD02460B46FEF7DEF8A2
:1021B00002460B461046194606B010BD02AA00F0B2
:1021C00043F800F00300012818D002282AD0F0B10B
:1021D000DDE90423DDE9020100F062FA024601F1C3
:1021E0000043E7E7002400220023009400F0A8FF4A
:1021F00002460B461046194606B010BDDDE9042321
:10220000DDE9020100F04CFA02460B46D2E7012458
:10221000DDE90423DDE90201009400F091FF0246AC
:102220000B46C7E70124DDE90423DDE90201009440
:1022300000F086FF024601F10043BBE7FB21E93FC6
:10224000FFFFEF7F000000002DE9F04FDFF838C2FC
:1022500021F000456545064614468FB040F3858061
:102260008A4A0F46954226DC7DA3D3E90023002944
:1022700040F3C081FEF77AF8854B80469D4289463F
:1022800000F08A8078A3D3E90023FEF76FF80246B6
:102290000B464046C4E900234946FEF767F872A39F
:1022A000D3E90023FEF762F80126C4E902013046B3
:1022B0000FB0BDE8F08F774A954240F38D80764AA3
:1022C00095425FDC4FEA2558A8F21648A5EB085165
:1022D0008B46FEF77FFCFEF797F902460B46304629
:1022E0005946CDE90823FEF741F800226B4BFDF774
:1022F0000FFF8B468246FEF76DFC0546FEF784F91C
:1023000002460B4650465946CDE90A23FEF72EF801
:102310000022624BFDF7FCFE02460B46CDE90C2382
:1023200000220023FEF724FC002800F06181002D2C
:102330000CBF01230223022559494246019108A8F6
:102340002146009500F0D4FA002F0646AFDAD4E912
:10235000000505F10041C4E90001E168A26801F14E
:102360000043C4E902237642A1E700264FF00008AB
:102370004FF00009C2E900013046C2E902890FB0FE
:10238000BDE8F08F02460B46FDF7F0FF0026C4E9DA
:102390000201C4E900018AE735A3D3E90023FDF770
:1023A000E5FF35A3D3E9002380468946FDF7DEFF2C
:1023B00002460B464046C4E900234946FDF7D6FFD6
:1023C0002DA3D3E90023FDF7D1FF0126C4E90201C3
:1023D00030460FB0BDE8F08F00F074FF28A3D3E9BA
:1023E000002380468946FDF793FE00222D4BFDF722
:1023F000BFFFFEF7EFFB0646FEF706F918A3D3E989
:10240000002382468B46CDE904ABFDF781FE0246F0
:102410000B4640464946FDF7A9FF13A3D3E9002325
:10242000CDE9020150465946FDF772FE1F2E804647
:1024300089463BDC1C4B721E53F82230AB4235D030
:1024400002460B46DDE90201FDF790FF02460B460E
:1024500082468B46C4E90023AEE000BFAFF30080A4
:1024600000004054FB21F93F3163621A61B4D03D52
:102470000000601A61B4D03D7370032E8A19A33B2B
:1024800083C8C96D305FE43FFB21E93F7BD902403F
:10249000FB21F93FFB213941FFFFEF7F0000704135
:1024A000843500080000E03F043500082B15079331
:1024B0004246DDE902014B46FDF758FFC1F30A53DE
:1024C000C3EB1555102D8B46824671DD68A3D3E909
:1024D0000023DDE90401FDF71BFEDDE902AB8046C8
:1024E000894642464B4650465946FDF73FFF024655
:1024F0000B465046594692469B46FDF737FF4246EB
:102500004B46FDF733FF5CA3D3E9002380468946A1
:10251000DDE90401FDF7FCFD42464B46FDF726FFD1
:10252000804689465046594642464B46CDE902AB65
:10253000FDF71CFF079AC1F30A53D31A312B8B46C0
:10254000824635DD4EA3D3E90023DDE90401FDF722
:10255000DFFDDDE902AB8046894642464B465046E8
:102560005946FDF703FF02460B4650465946924630
:102570009B46CDE902ABFDF7F9FE42464B46FDF71F
:10258000F5FE41A3D3E9002380468946DDE9040135
:10259000FDF7BEFD42464B46FDF7E8FE8046894604
:1025A0005046594642464B46FDF7E0FE8B46824672
:1025B00052465B46C4E90023DDE9020152465B4610
:1025C000FDF7D4FE42464B46FDF7D0FE02460B46D1
:1025D000002FC4E90223BFF66AAE0BF1004301F1FC
:1025E0000041A0606360E1607642C4F800A05EE64E
:1025F0000323A0E6FDF7BCFE274B80469D4289469B
:1026000016D023A3D3E90023FDF7B2FE02460B4602
:102610004046C4E900234946FDF7A8FE1CA3D3E9C0
:102620000023FDF7A5FE4FF0FF36C4E902013EE6A8
:102630000FA3D3E90023FDF79BFE0FA3D3E90023EB
:1026400080468946FDF794FE02460B464046C4E9A3
:1026500000234946FDF78AFE07A3D3E90023FDF7CF
:1026600087FE4FF0FF36C4E9020120E6AFF3008099
:102670000000601A61B4D03D7370032E8A19A33B29
:102680000000002E8A19A33BC14920259A837B397B
:102690003163621A61B4D03DFB21F93F00000000B4
:1026A0002DE9F04F21F00046B6F1795F92469B4646
:1026B0000C46054685B06DDAFEF78CFA002800F06E
:1026C000EB802A46234628462146FDF721FD76A3C6
:1026D000D3E9002380468946FDF71AFD74A3D3E9A8
:1026E0000023FDF745FE42464B46FDF711FD72A360
:1026F000D3E90023FDF73AFE42464B46FDF708FDBD
:102700006FA3D3E90023FDF733FE42464B46FDF7A6
:10271000FFFC6DA3D3E90023FDF728FE42464B469C
:10272000FDF7F6FC6AA3D3E90023FDF721FE42463C
:102730004B46FDF7EDFCCDE900010022404649463D
:10274000654BFDF7E5FCDDE9002306460F464046F4
:102750004946FDF7DDFCA846A14652465B460446C5
:102760000D4640464946FDF7D3FC02460B4620463F
:102770002946FDF7FBFD02460B4630463946FDF77C
:10278000F5FD02460B4600205449FDF7EFFD05B06C
:10279000BDE8F08F02460B46FDF7BAFC42A3D3E931
:1027A000002380468946FDF7B3FC41A3D3E900230B
:1027B000FDF7DEFD42464B46FDF7AAFC3EA3D3E9FA
:1027C0000023FDF7D3FD42464B46FDF7A1FC3CA399
:1027D000D3E90023FDF7CCFD42464B46FDF798FCBC
:1027E00039A3D3E90023FDF7C1FD42464B46FDF76F
:1027F0008FFC37A3D3E90023FDF7BAFD4B464246D1
:10280000FDF786FC364BCDE900019E4295DD354B48
:1028100000229E423ADCA6F5001300202F491646FE
:102820001F46FDF7A3FDCDE90201002240464946BF
:10283000294BFDF76DFC32463B46FDF797FDDDE980
:10284000002306460F4640464946FDF761FCA84670
:10285000A14652465B4604460D4640464946FDF7B2
:1028600057FC02460B4620462946FDF77FFD0246EF
:102870000B4630463946FDF779FD02460B46DDE949
:102880000201FDF773FD05B0BDE8F08F164B002681
:10289000CDE90223154FC8E70020104905B0BDE877
:1028A000F08F00BFAFF30080D43888BEE9FAA8BD2E
:1028B000C4B1B4BD9EEE213EAD529C804F7E923E8F
:1028C0009015CB19A001FA3E7751C1166CC1563F45
:1028D0004C5555555555A53F0000E03F0000F03FD1
:1028E0003233D33F0000E93F0000E73F0000D23F12
:1028F0002DE9F04FADF5197DB84CA29D089354F821
:102900002540013B12F1140F074605940B910393E8
:10291000C0F24283B249D31E81FB0301DB17C3EB34
:10292000A10307930133A3EB8303DB00D3180693C2
:10293000079A039BD61A059A12EB03091BD409F1D7
:10294000010900240025DDF88CA2B1440DF18008B6
:1029500008E05AF82600FDF757FE01364E45E8E834
:10296000020108D0002EF4DA2046294601364E45F1
:10297000E8E80201F6D1059B002BC0F2BC83089B5E
:1029800020AA02EBC30ADA000292059AA7F1080115
:102990001A44DDF80C9004910DF5E07B019201EBF7
:1029A000C308039B002BC0F2AE81574600240025CC
:1029B000049E77E90223F6E90201FDF7A9FB02462E
:1029C0000B4620462946FDF7D3FC464504460D46F6
:1029D000EFD1019B09F101099945EBE802450AF1A4
:1029E000080ADED1049BDDF808B00BAA9B44059BC6
:1029F00002EB83020A920CAA019302EB8303083BC9
:102A00000993019A98AB03EBC203002A53E92845C6
:102A100029DD0DF5E07A0DF130090AEBC20800223C
:102A2000704B20462946FDF773FBFEF7D3F8FDF700
:102A3000EBFD00226C4B06460F46FDF769FB024694
:102A40000B4620462946FDF791FCFEF7C3F878E9CE
:102A5000022349F8040B39463046FDF789FCD0457E
:102A600004460D46DBD1DDF81890204629464A463B
:102A700000F0AAFC00224FF07F5304460D46FDF7FC
:102A800047FB00F025FC0022584BFDF741FB0246B6
:102A90000B4620462946FDF769FC0D460446FEF725
:102AA00099F88046FDF7B0FD0B46024629462046C0
:102AB000FDF75CFC4B46002B06460F4640F3988022
:102AC000019A0CA9013A51F82250C9F1180345FAAC
:102AD00003F101FA03F3ED1A0CAB43F82250C9F1EC
:102AE00017031D41002D884400F38C800022002331
:102AF00030463946FEF73CF8002800F05482019B2E
:102B0000059A03F1FF3A524510DC002203F180439D
:102B1000013B0CA90A9801EB830353F80419834283
:102B200042EA0102F9D1002A40F0F080059B0CAA8C
:102B3000013B52F82330002B40F0E0800123099A3A
:102B400052F8041901330029FAD0019AD3180293DC
:102B5000531C9946DDF80480089A9044079A02EBCA
:102B6000030A0AF1804AA39A0AF1FF3A02EB8A0AA1
:102B700020AA02EBC80870AA02EBC30301935AF81B
:102B8000040FFDF741FD039B4746002B08F10808A1
:102B900048E902011FDB00240025049E083F01E0F4
:102BA00077E80201F6E90223FDF7B2FA02460B4686
:102BB00020462946FDF7DCFB5E4504460D46EFD175
:102BC000019B09F10109E3E802450193029B994544
:102BD000D5DD019315E700240025F1E7D036000884
:102BE000ABAAAA2A0000703E0000704100002040FD
:102BF0006BD1019B0CAA013B52F82350ED15002D1F
:102C00007FF774AF019B08F10108002B40F3C981E5
:102C10000C9C002C51D1019B012B20D001220CAB2C
:102C200053F8044F002C4BD0531C0CA9C4F18074F2
:102C300041F822400199994210DD0CAC0CAA52F8DF
:102C400023206FF07F4004EB830304EB810100E05D
:102C50001A68821A43F8042B8B42F9D10124069B8F
:102C6000002B0EDD012B00F08C81022B09D1019B82
:102C70000CA95A1E0CAB53F82230C3F3150341F8CC
:102C80002230022D7FF432AF32463B4600207A4993
:102C9000FDF76CFB06460F46002C3FF427AF069A63
:102CA0000020754900F090FB02460B46304639463D
:102CB000FDF75CFB06460F4618E701230022B4E748
:102CC000019901328A42ABD1C9E700226B4BFDF773
:102CD0006DFF054600283FF409AF019B08F101088C
:102CE000002BC8BF022593DC32463B4600206249D8
:102CF000FDF73CFB022506460F46F7E6019B013334
:102D00009946029326E70024002562E6069B039578
:102D1000A3F118020CAB53F82A30CDF81C800692B0
:102D200073B9019B0CA903F18043023B01EB8303C0
:102D300053F804190AF1FF3A183A0029F8D006921C
:102D40000020069A4C4900F03FFBBAF1000F044600
:102D50000D46C0F2D7814FF0000870AB03EBCA0BF1
:102D60000CAA0AF10103069302EB8306DFF8109127
:102D70004FEACA0304930BF1080756F8040DFDF758
:102D800043FC22462B46FDF7C3F94B4667E9020197
:102D9000424620462946FDF7BBF90CAB9E4204464D
:102DA0000D46EAD148ABCDE9013ADDF814A04FF069
:102DB0000009BAF1000F2CDB2DA3D3E900235F46F5
:102DC000002600240025DFF8BC8003E0B14510DBBD
:102DD000F8E80223F7E80201FDF79AF902460B46EC
:102DE00020462946FDF7C4FA0136B24504460D4691
:102DF000ECDA019B029A03EBC9039145C3E9004554
:102E0000ABF1080B09F1010306D0BAF1000F9946A6
:102E1000D2DA00240025ECE7A29BDDF808A0022B03
:102E200032DC002B00F3F28018D1A29B049D1C46DB
:102E3000019E08353544184675E902232146FDF701
:102E400097FAAE4203460C46F5D1039A0AB104F153
:102E50000044184621460B9BC3E90001079B03F081
:102E600007000DF5197DBDE8F08F00BFAFF30080BE
:102E700000000040FB21F93F0000F03F0000E03F70
:102E80000000703E98360008A29B032BE6D1BAF1F1
:102E9000000F00F04D81019B049A13449B46D3E937
:102EA00000455BE902672046294632463B46FDF76E
:102EB0005FFAA046A94604460D4622462B463046F8
:102EC0003946FDF753FA4B464246FDF751FACBE936
:102ED00000016BE90245019B5B45E2D1BAF1010FAC
:102EE00040F32681049B019A0DF5947B13449A4686
:102EF000D3E9004502935AE9026720462946324643
:102F00003B46FDF735FAA046A94604460D46224643
:102F10002B4630463946FDF729FA42464B46FDF727
:102F200027FACAE900016AE90245D345E3D1002343
:102F30001E46029C019A083402F11005184674E9F5
:102F400002233146FDF714FAA54203460E46F5D199
:102F5000039A002A40F0A480184631460B9C019B3E
:102F6000C4E90401D3E90223C4E90223DDE94823CB
:102F7000C4E90023079B03F007000DF5197DBDE8A8
:102F8000F08F019B0CA95A1E0CAB53F82230C3F3EF
:102F9000160341F8223074E600216FF01703079101
:102FA000C4E400245BE6069C304639466242039541
:102FB000CDF81C8000F008FA00225F4B06460F4651
:102FC000FDF7F4FD002861D000225C4B1834304638
:102FD00039460694FDF79CF8FDF7FCFD0446FDF725
:102FE00013FB0022544BFDF793F80B46024639467B
:102FF0003046FDF7BBF9FDF7EDFD019D0CAB05F18A
:10300000010A43F8250043F82A4099E60026344691
:10301000019F069B07EBC305304675E90223214655
:10302000FDF7A6F9AF4206460C46F5D1039B002BEF
:1030300050D13046214623460B9C3246C4E900015C
:10304000DDE94801FDF792F9BAF1000F03460E469B
:1030500010DD012448AD1846F5E902233146FDF79D
:1030600087F90134A24503460E46F4DA039A0AB101
:1030700006F10046184631460B9BC3E90201079B47
:1030800003F007000DF5197DBDE8F08F3046394695
:10309000FDF7A0FD019B0CAA9A4642F823004FE6DB
:1030A0000B9D019C06F100466E6126462068A268D1
:1030B00064682B6104F10041F468C5E9000104F182
:1030C0000043C5E90223079B03F007000DF5197DB6
:1030D000BDE8F08F0B9804F10041066032462346AC
:1030E0004160DDE94801FDF741F9BAF1000F0346FF
:1030F0000E46AEDCBCE7A7F108030493089BDB0097
:1031000002936FE4A29B022B06DC002B0DDC7FF404
:10311000A5AEA29B1C4698E6A29B032B7FF49EAE15
:10312000002348AA1E46019212E7002634467DE796
:1031300000231E460CE700BF000070410000703EF7
:103140002DE9F04F85B0CDE9022321F00043B3F122
:10315000795F8246019104DAFDF73CFD002800F01A
:103160008E80019B524619465046FCF7D1FF04461B
:103170000D46019B2246194650462B46FCF7C8FFD8
:1031800043A3D3E9002306460F4620462946FCF711
:10319000BFFF41A3D3E90023FDF7E8F822462B4601
:1031A000FCF7B6FF3EA3D3E90023FDF7E1F8224682
:1031B0002B46FCF7ADFF3CA3D3E90023FDF7D6F87F
:1031C00022462B46FCF7A4FF39A3D3E90023FDF7E1
:1031D000CFF80E9B80468946BBB3DDE90201002291
:1031E000374BFCF795FF42464B46804689463046B2
:1031F0003946FCF78DFF02460B4640464946FDF72F
:10320000B5F822462B46FCF783FFDDE90223FDF7E4
:10321000ADF829A3D3E9002304460D4630463946CC
:10322000FCF776FF02460B4620462946FDF7A0F83C
:1032300002460B4650460199FDF798F882468B46A8
:103240005046594605B0BDE8F08F02460B46204671
:103250002946FCF75DFF18A3D3E90023FDF786F8A4
:1032600032463B46FCF754FF5246019BFDF780F87F
:1032700082468B465046594605B0BDE8F08FDDF8D2
:1032800004B05046594605B0BDE8F08FAFF300805A
:103290007CD5CF5A3AD9E53DEB9C2B8AE6E55A3EE0
:1032A0007DFEB157E31DC73ED561C119A0012A3F7C
:1032B000A6F810111111813F495555555555C53F77
:1032C0000000E03F21F00041704700BF0000000017
:1032D000C1F30A52F8B5A2F2FF35132D0B4684460E
:1032E0000C46064630DC002D1EDB354F2F4101EA2F
:1032F0000702024315D030A3D3E90023FDF738F8C5
:1033000000220023FDF75CFC48B1002C04DA4FF4E6
:10331000801343FA05F52C44002624EA07042346CB
:10332000B44660461946F8BD23A3D3E90023FDF750
:103330001FF800220023FDF743FC0028EFD0002CEB
:1033400024DB00263446EAE7332D08DDB5F5806F2F
:10335000E7D10246FDF70CF884460B46E1E74FF053
:10336000FF37A2F21342D7400742DAD012A3D3E9C3
:103370000023FCF7FDFF00220023FDF721FC0028BD
:10338000CDD0002C0BDB26EA0706C8E724F000436B
:103390000C4A1E43002E18BF14460026BFE7142D0A
:1033A00008D00123C5F1340503FA05F5AE1928BF8D
:1033B000E418E8E70134E6E79C7500883CE4377ED2
:1033C000FFFF0F000000F0BFC1F30A5370B58C4639
:1033D00004460D4616467BBB034621F0004C5CEAD2
:1033E000030328D0324B0022FCF792FE314B0446F7
:1033F0009E420D461ADB8C46C1F30A53363B40F21F
:10340000FE723344934220DC002B3EDC13F1350F77
:103410002CDA4CF250339E4217DC05F0004343F0A7
:10342000D27141F4B731244841F01F011CA3D3E904
:103430000023FCF76DFE70BD40F2FF7E7345DED1C8
:1034400002460B46FCF794FF70BD05F0004343F0C5
:10345000FC4141F45F1141F4105113A3D3E900235F
:10346000164841F03C01FCF753FE70BD2CF0FF4CB8
:1034700003F136012CF4E00C4CEA01550022204601
:1034800029460F4BFCF744FE70BD2CF0FF4C2CF48A
:10349000E00C20464CEA035170BD00BFAFF3008042
:1034A00059F3F8C21F6EA5019C7500883CE4377E75
:1034B00000005043B03CFFFF59F3F8C29C750088F0
:1034C0000000903CF8B500BFF8BC08BC9E467047B1
:0C34D000F8B500BFF8BC08BC9E46704771
:1034E00000000000000000000102030406070809B4
:1034F00002030405060708090A0B0C0D0E0F101035
:1035000001020000FB21F93FFB2109407CD9124058
:10351000FB2119407A6A1F407CD92240BBFD25401F
:10352000FB2129403A462C407A6A2F405C473140C3
:103530007CD932409C6B3440BBFD3540DB8F37403B
:10354000FB2139401BB43A403A463C405AD83D40F2
:103550007A6A3F404C7E40405C4741406C1042409C
:103560007CD942408CA243409C6B4440AC344540E3
:10357000BBFD4540CBC64640DB8F4740EB5848403B
:10358000FB21494083F9A200444E6E00FC2915003E
:10359000D1572700DD34F50062DBC0003C9995006F
:1035A000419043006351FE00BBDEAB00B761C50034
:1035B0003A6E2400D24D42004906E00009EA2E008E
:1035C0001C92D100EB1DFE0029B11C00E83EA700B3
:1035D000F535820044BB2E009CE98400B4267000BF
:1035E000417E5F00D6913900538339009CF4390045
:1035F0008B5F840028F9BD00F81F3B00DEFF9700B9
:103600000F980500112FEF000A5A8B006D1F6D00F7
:10361000CF7E360009CB2700464FB7009E663F009D
:103620002DEA5F00BA277500E5EBC7003D7BF1008E
:10363000F739070092528A00FB6BEA001FB15F0066
:10364000085D8D00300356007BFC4600F0AB6B003C
:1036500020BCCF0036F49A00E3A91D005E61910002
:10366000081BE60085996500A0145F008D40680086
:1036700080D8FF0027734D0006063100CA5615009A
:10368000C9A873007BE260006B8CC00000000000E2
:1036900000000040FB21F93F000000002D44743E73
:1036A000000000809846F83C0000006051CC783B58
:1036B00000000080831BF0390000004020257A388C
:1036C000000000802282E336000000001DF369350F
:1036D00002000000030000000400000006000000DB
:0C36E00000127A00010000001000000041
:04000005080010657A
:00000001FF
