:020000040800F2
:10000000005000201D0400082103000823030008FD
:10001000250300082703000829030008000000004A
:100020000000000000000000000000002B0300089A
:100030002D030008000000002F0300083103000812
:1000400065040008650400086504000865040008EC
:10005000390300084103000865040008650400082E
:1000600065040008430300084D0300086504000808
:1000700065040008650400086504000865040008BC
:1000800065040008650400086504000865040008AC
:10009000650400086504000865040008650400089C
:1000A000650400086504000865040008650400088C
:1000B0006504000859030008650400086504000889
:1000C000650400086504000865040008650400086C
:1000D000650400086504000865040008650400085C
:1000E00065040008650400086504000800000000BD
:1000F0000000000000000000000000000000000000
:0C01000000000000000000005FF808F1A3
:10010C002DE9F04188B000240494059406940794DA
:10011C002D4B9A6942F010029A619A6902F0100212
:10012C000192019A9A6942F020029A619A6902F04E
:10013C0020020292029A9A6942F004029A619B6927
:10014C0003F004030393039BDFF8808022464FF4F3
:10015C000051404600F04CFC1D4E224640213046DA
:10016C0000F046FC4FF40053049301270597022539
:10017C000695079504A9404600F028FB1823049324
:10018C00144B0593069704A9304600F01FFB40233F
:10019C00049305970695079504A9304600F016FBC5
:1001AC0022462146092000F0B5F9092000F0EAF9B1
:1001BC00224621460A2000F0ADF90A2000F0E2F9AF
:1001CC0008B0BDE8F08100BF0010024000100140F3
:1001DC00000801400000111038B5044600F082F907
:1001EC000546082C02D0102C0CD038BD0C4B1B68CB
:1001FC00C31A322BF7D940210A4800F0FFFB084BF9
:10020C001D60F0E7084B1B68EB1A322BEDD94FF44D
:10021C000051064800F0F2FB034B1D60E5E700BF00
:10022C0010000020000801401400002000100140C4
:10023C0072B6FEE700B591B02822002106A801F0A5
:10024C002BF900230193029303930493059301224A
:10025C0006924FF4803307930A9202220D920E936A
:10026C004FF4E0130F9306A800F0F6FB80B90F23B0
:10027C00019302210291002303934FF480620492B4
:10028C00059301A800F01AFE20B911B05DF804FB2B
:10029C00FFF7CEFFFFF7CCFF08B500F005F9FFF72D
:1002AC00C9FFFFF72DFF00F05BF8FEE700B583B048
:1002BC00164B9A6942F001029A619A6902F00102A6
:1002CC000092009ADA6942F08052DA61DB6903F03D
:1002DC0080530193019B00221146042000F01AF96F
:1002EC00042000F04FF900221146052000F012F90D
:1002FC00052000F047F9064A536823F0E06343F009
:10030C000073536003B05DF804FB00BF00100240A3
:10031C0000000140FEE7FEE7FEE7FEE7FEE7704760
:10032C007047704708B500F0D1F808BD08B500F06B
:10033C0093F908BD704708B5082000F069FB08BDAB
:10034C0008B5102000F064FB08BD000008B5024899
:10035C0000F09CFE08BD00BF180000207047000094
:10036C0000B587B000230293039304930593009385
:10037C0001931548154A026040F2CF224260836017
:10038C006322C2600361836100F072FF90B94FF485
:10039C008053029302A90C4800F0A2FF68B9002315
:1003AC00009301936946084801F01AF840B907B068
:1003BC005DF804FBFFF73CFFE9E7FFF739FFEEE7D9
:1003CC00FFF736FFF3E700BF1800002000040040E1
:1003DC0002680E4B9A4200D0704700B583B003F50B
:1003EC000333DA6942F00202DA61DB6903F00203DB
:1003FC000193019B002211461D2000F08BF81D205B
:10040C0000F0C0F803B05DF804FB00BF000400402E
:10041C00FFF7A4FF0B480C490C4A002302E0D45808
:10042C00C4500433C4188C42F9D3094A094C002334
:10043C0001E013600432A242FBD301F009F8FFF78C
:10044C002BFF7047000000200C00002084150008D2
:10045C001000002088000020FEE7000010B50446C4
:10046C000E4B18784FF47A73B3FBF0F30C4A106808
:10047C00B0FBF3F000F094F868B90F2C01D901200F
:10048C000AE0002221464FF0FF3000F043F8054B04
:10049C001C60002000E0012010BD00BF0400002003
:1004AC00000000200800002008B5074A136843F03C
:1004BC0010031360032000F01BF80F20FFF7CEFF92
:1004CC00FFF7F4FE002008BD00200240034A11682B
:1004DC00034B1B780B441360704700BF6000002077
:1004EC0004000020014B1868704700BF600000201A
:1004FC00074AD36823F4E0631B041B0C000200F4CE
:10050C00E060034343F0BF6343F40033D3607047B0
:10051C0000ED00E000B5194BDB68C3F30223C3F117
:10052C00070CBCF1040F28BF4FF0040C03F1040EB0
:10053C00BEF1060F18D9033B4FF0FF3E0EFA0CFC30
:10054C0021EA0C0199400EFA03F322EA0303194342
:10055C0000280BDB0901C9B200F1604000F56140D5
:10056C0080F800135DF804FB0023E5E700F00F00B2
:10057C000901C9B2024B1954F4E700BF00ED00E0C9
:10058C0014ED00E0002807DB00F01F0240090123F6
:10059C009340024A42F82030704700BF00E100E06F
:1005AC000138B0F1807F0BD24FF0E0235861054A3F
:1005BC00F02182F823100020986107221A617047FD
:1005CC000120704700ED00E0044B0022DA61044A80
:1005DC00136943F001031361018070476800002028
:1005EC0000200240194BDB6813F0100305D0184AA9
:1005FC00D36943F00203D3611023144AD26812F07A
:10060C00040F06D01249CA6942F00102CA6143F0D4
:10061C0004030E4AD26912F0010F09D00C49CA69C1
:10062C0042F00402CA610949CA6922F00102CA6196
:10063C0040F20112934202D0044AD3607047034A3D
:10064C00D36923F00103D361704700BF002002403F
:10065C006800002070477047F8B5514BDB6813F009
:10066C00100F04D14E4BDB6813F0040F0BD04D4C24
:10067C00A5684FF0FF33A360FFF7B4FF2846FFF7E0
:10068C00EAFF00232370464BDB6813F0200F2BD0BE
:10069C00434B2022DA60434B1B782BB3414B1B7826
:1006AC00DBB2012B2DD03F4B1B78DBB2022B47D09A
:1006BC003C4B5A68013A5A605B68002B4CD1394B61
:1006CC001B78DBB2032B5FD0364B1B78DBB2042BD1
:1006DC005FD0344B98680638FFF7BCFF314B4FF0B6
:1006EC00FF329A6000221A702E4B1B7843B92C4BA8
:1006FC001A6922F007021A611A6922F4A0521A61CF
:10070C00F8BD284B5A68013A5A605B687BB1254C9E
:10071C00A068FFF79FFFA06800F58060A060204AEA
:10072C00136923F00203136100F03EF8DCE71D4B64
:10073C004FF0FF30986000221A70FFF78BFFD3E761
:10074C00174A136923F0040313610020FFF782FF9B
:10075C00144B00221A70C7E7124B9A6802329A6047
:10076C009868D3E90467340C44EA07443D0CC3E9A8
:10077C0004450B490A6922F001020A61D3E90423FA
:10078C0091B2FFF721FFAFE7064B9868FFF762FFC6
:10079C00A4E7044B98680238FFF75CFF9EE700BFA4
:1007AC000020024068000020064B0022DA61064B54
:1007BC001A6942F002021A6158611A6942F0400249
:1007CC001A617047680000200020024070B582B0AA
:1007DC000024A446A6E0804DAA4210D007D97F4D34
:1007EC00AA420CD005F58035AA4208D013E0A5F535
:1007FC008015AA4203D005F57025AA4207D18A6854
:10080C00002A58D0012A51D04361082403E0A5F5F1
:10081C008015AA42F3D0BEF1FF0F4ED80646BEF1AA
:10082C00FF0F4CD84FEA8C0233680F25954023EA12
:10083C00050304FA02F2134333604B6813F0805F34
:10084C006ED0674B9A6942F001029A619B6903F082
:10085C0001030193019B4FEA9C02951C614B53F8D9
:10086C0025600CF003039D000F23AB4026EA030622
:10087C005D4B984229D003F58063984200F08E803E
:10088C0003F58063984200F08B8003F580639842F7
:10089C0019D004231AE0CC68BDE7CC680434BAE75D
:1008AC00CC680834B7E7CC680C34B4E7036108248F
:1008BC00B1E70024AFE70424ADE7061DAFE7ACF1C8
:1008CC0008029200B0E7032300E00023AB4033435F
:1008DC000232444D45F822304B6813F4801F61D02E
:1008EC00424A936843EA0E0393604B6813F4001F6B
:1008FC005ED03E4AD36843EA0E03D3604B6813F4D0
:10090C00003F5BD0394A536843EA0E0353604B688F
:10091C0013F4803F58D0354A136843EA0E03136032
:10092C000CF1010C0A6832FA0CF353D0012303FAD0
:10093C000CF302EA030E33EA0202F1D14A68122ADE
:10094C003FF649AF122A3FF666AF01A555F822F0E3
:10095C000B080008A3080008AD080008BF08000831
:10096C0023080008230800082308000823080008AF
:10097C00230800082308000823080008230800089F
:10098C00230800082308000823080008230800088F
:10099C0023080008A7080008B3080008012395E7FE
:1009AC00022393E7114A936823EA0E0393609CE7B2
:1009BC000E4AD36823EA0E03D3609FE70B4A5368B1
:1009CC0023EA0E035360A2E7084A136823EA0E03D6
:1009DC001360A5E702B070BD0000221000003110BA
:1009EC0000100240000001400008014000040140DA
:1009FC000AB101617047090401617047C36801EADB
:100A0C00030221EA030141EA02410161704700003F
:100A1C0008B5054B5B69034200D108BD024B586118
:100A2C00FFF7DAFBF9E700BF0004014082B0084B86
:100A3C001B68084AA2FB03235B0A00FB03F3019328
:100A4C0000BF019B5A1E0192002BF9D102B07047D6
:100A5C0000000020D34D6210002800F0F18170B529
:100A6C0082B00446036813F0010F2CD0994B5B68DD
:100A7C0003F00C03042B1DD0964B5B6803F00C03A6
:100A8C00082B12D06368B3F5803F41D0002B55D1B1
:100A9C0003F1804303F504331A6822F480321A60A0
:100AAC001A6822F480221A6037E08A4B5B6813F4D0
:100ABC00803FE7D0874B1B6813F4003F03D063687B
:100ACC00002B00F0BF81236813F0020F75D0814B0F
:100ADC005B6813F00C0F5FD07E4B5B6803F00C036C
:100AEC00082B54D02369002B00F08A807A4B01220A
:100AFC001A60FFF7F7FC0546764B1B6813F0020FE4
:100B0C0075D1FFF7EFFC401B0228F5D903209EE1BD
:100B1C00704A136843F480331360636843B3FFF780
:100B2C00E1FC05466B4B1B6813F4003FCBD1FFF780
:100B3C00D9FC401B6428F5D9032088E1B3F5A02F1C
:100B4C0009D0644B1A6822F480321A601A6822F4B5
:100B5C0080221A60E1E703F18043A3F53C331A6865
:100B6C0042F480221A601A6842F480321A60D4E788
:100B7C00FFF7B8FC0546574B1B6813F4003FA2D097
:100B8C00FFF7B0FC401B6428F5D903205FE1514B03
:100B9C005B6813F4803FA5D14E4B1B6813F0020F1A
:100BAC0003D02369012B40F04F814A4A136823F08C
:100BBC00F803616943EAC1031360236813F0080F5B
:100BCC0033D0A369002B5CD0434B0122C3F88024A3
:100BDC00FFF788FC05463F4B5B6A13F0020F21D1EF
:100BEC00FFF780FC401B0228F5D903202FE1394A7E
:100BFC00136823F0F803616943EAC1031360DCE76F
:100C0C00354B00221A60FFF76DFC0546314B1B6813
:100C1C0013F0020FD1D0FFF765FC401B0228F5D969
:100C2C00032014E10120FFF701FF236813F0040FE8
:100C3C0000F09680274BDB6913F0805F34D1254B95
:100C4C00DA6942F08052DA61DB6903F08053019378
:100C5C00019B0125214B1B6813F4807F26D0E36890
:100C6C00012B3DD0002B53D103F1804303F504330A
:100C7C001A6A22F001021A621A6A22F004021A623B
:100C8C0033E0154B0022C3F88024FFF72BFC0546FC
:100C9C00104B5B6A13F0020FC7D0FFF723FC401B0D
:100CAC000228F5D90320D2E00025D3E70B4A1368BC
:100CBC0043F480731360FFF715FC0646074B1B6863
:100CCC0013F4807FCBD1FFF70DFC801B6428F5D982
:100CDC000320BCE0001002400000424200700040C3
:100CEC005F4A136A43F001031362E36833B3FFF7FF
:100CFC00F9FB06465A4B1B6A13F0020F2FD1FFF774
:100D0C00F1FB801B41F288339842F3D903209EE01B
:100D1C00052B09D0524B1A6A22F001021A621A6A88
:100D2C0022F004021A62E0E74D4B1A6A42F0040208
:100D3C001A621A6A42F001021A62D6E7FFF7D2FB76
:100D4C000646474B1B6A13F0020F08D0FFF7CAFB8D
:100D5C00801B41F288339842F3D9032077E0E5B940
:100D6C00E369002B72D03E4A526802F00C02082A4A
:100D7C0056D0022B17D03B4B00221A66FFF7B2FB62
:100D8C000446374B1B6813F0007F47D0FFF7AAFBD4
:100D9C00001B0228F5D9032059E0314AD36923F00E
:100DAC008053D361DCE72F4B00221A66FFF79AFBC6
:100DBC0005462B4B1B6813F0007F06D0FFF792FB08
:100DCC00401B0228F5D9032041E0236AB3F5803F8C
:100DDC001AD023494B6823F47413226A606A0243C5
:100DEC0013434B601F4B01221A66FFF77BFB044633
:100DFC001B4B1B6813F0007F0ED1FFF773FB001B1E
:100E0C000228F5D9032022E0154A536823F4003355
:100E1C00A1680B435360DCE7002018E0002016E0CB
:100E2C00012B16D00E4B5B6803F48031226A914281
:100E3C0011D103F47013626A93420ED1002006E0C4
:100E4C0001207047012002E0012000E0002002B0E8
:100E5C0070BD0120FBE70120F9E70120F7E700BF97
:100E6C0000100240000042420F4B5B6803F00C0282
:100E7C00082A01D00D487047C3F383420C49885CA3
:100E8C0013F4803F0BD0084B5B68C3F34043094A13
:100E9C00D35C064A02FB00F0B0FBF3F07047064B44
:100EAC0003FB00F0704700BF0010024000127A00F4
:100EBC00701500088015000800093D00002800F09E
:100ECC00A08070B50D460446524B1B6803F0070317
:100EDC008B420BD24F4A136823F007030B4313606A
:100EEC00136803F007038B4240F08D80236813F0E6
:100EFC00020F17D013F0040F04D0474A536843F481
:100F0C00E0635360236813F0080F04D0424A53681F
:100F1C0043F460535360404A536823F0F003A168D4
:100F2C000B435360236813F0010F31D06368012B1E
:100F3C0020D0022B25D0384A126812F0020F64D050
:100F4C0035494A6822F0030213434B60FFF7CAFA93
:100F5C000646314B5B6803F00C036268B3EB820FFF
:100F6C0016D0FFF7BFFA801B41F288339842F0D9B4
:100F7C00032045E0284A126812F4003FE0D101201A
:100F8C003EE0254A126812F0007FD9D1012037E0EB
:100F9C00204B1B6803F00703AB420AD91D4A1368A8
:100FAC0023F007032B431360136803F00703AB42D2
:100FBC002DD1236813F0040F06D0174A536823F47D
:100FCC00E063E1680B435360236813F0080F07D00C
:100FDC00114A536823F46053216943EAC1035360F7
:100FEC00FFF742FF0C4B5B68C3F303130B4AD35C54
:100FFC00D8400B4B18600B4B1868FFF72FFA0020EA
:10100C0070BD012070470120FAE70120F8E70120AC
:10101C00F6E700BF002002400010024060150008F7
:10102C00000000200800002010B4036A046A24F0B9
:10103C0001040462846924F0F00C4CEA021223F0DF
:10104C000A030B438261036210BC704710B4036A3D
:10105C00046A24F010040462846924F4704C4CEA91
:10106C00023223F0A00343EA01138261036210BC35
:10107C007047836823F070030B4343F007038360CE
:10108C0070477047704770477047704770B504469B
:10109C000368DE681D6915F0020F10D016F0020F00
:1010AC000DD06FF002021A610123037703689B696C
:1010BC0013F0030F5ED0FFF7E6FF0023237715F044
:1010CC00040F12D016F0040F0FD023686FF0040237
:1010DC001A610223237723689B6913F4407F4FD056
:1010EC002046FFF7D0FF0023237715F0080F12D00E
:1010FC0016F0080F0FD023686FF008021A61042352
:10110C0023772368DB6913F0030F40D02046FFF7E9
:10111C00BAFF0023237715F0100F12D016F0100F22
:10112C000FD023686FF010021A610823237723680D
:10113C00DB6913F4407F31D02046FFF7A4FF002376
:10114C00237715F0010F02D016F0010F2DD115F0F9
:10115C00800F02D016F0800F2FD115F0400F02D067
:10116C0016F0400F31D115F0200F02D016F0200FE1
:10117C0033D170BDFFF786FF2046FFF785FF9CE754
:10118C002046FFF77FFF2046FFF77EFFABE72046A8
:10119C00FFF778FF2046FFF777FFBAE72046FFF707
:1011AC0071FF2046FFF770FFC9E723686FF001025B
:1011BC001A612046FFF765FFC9E723686FF08002CC
:1011CC001A61204600F043F9C7E723686FF040022C
:1011DC001A612046FFF759FFC5E723686FF020021C
:1011EC001A61204600F032F9C3E7000003681F4A79
:1011FC0090420AD0B0F1804F07D0A2F594329042C1
:10120C0003D002F58062904203D123F070034A6848
:10121C001343164A90420AD0B0F1804F07D0A2F582
:10122C009432904203D002F58062904203D123F4B1
:10123C004073CA68134323F080034A691343036065
:10124C008B68C3620B688362084B98420AD00123F7
:10125C004361036913F0010F03D0036923F0010309
:10126C00036170470B690363F1E700BF002C014079
:10127C0040B310B5044690F83D30F3B1022384F826
:10128C003D30214651F8040BFFF7B0FF012384F8E1
:10129C00463084F83E3084F83F3084F8403084F88F
:1012AC00413084F8423084F8433084F8443084F878
:1012BC00453084F83D30002010BD80F83C30FFF7FD
:1012CC0087F8DBE70120704710B4846824F47F4C66
:1012DC0042EA03220A4342EA0C02826010BC7047C5
:1012EC0090F83C30012B78D010B50446012380F8DF
:1012FC003C30022380F83D300268936823F47F432E
:10130C0023F0770393600B68602B4CD029D8402BCB
:10131C0054D00CD9502B22D1CA6849680068FFF709
:10132C0083FE50212068FFF7A4FE002005E0202B4F
:10133C000DD009D9302B0AD00120012384F83D307F
:10134C00002384F83C3010BD0BB1102B05D119468D
:10135C002068FFF78EFE0020EFE70120EDE701206B
:10136C00EBE7B3F5805F34D0B3F5005F0CD1CB68FD
:10137C004A6889680068FFF7A7FF2268936843F4FE
:10138C00804393600020D8E7702B24D1CB684A6847
:10139C0089680068FFF798FF2268936843F0770329
:1013AC0093600020C9E7CA6849680068FFF74EFEE1
:1013BC0060212068FFF75DFE0020BEE7CA6849681F
:1013CC000068FFF731FE40212068FFF752FE002035
:1013DC00B3E70020B1E70120AFE70220704700001F
:1013EC0090F83C30012B2CD010B4012380F83C3009
:1013FC00022380F83D3003685A689C6822F0700C18
:10140C000A6842EA0C025A6003680F4A93420AD0F7
:10141C00B3F1804F07D0A2F59432934203D002F57A
:10142C008062934204D124F080044A6814439C6087
:10143C00012380F83D30002380F83C30184610BC66
:10144C0070470220704700BF002C01407047704766
:10145C0070B50D4E0D4D761BB61006D0002455F808
:10146C00043B01349847A642F9D1094E094D00F0CE
:10147C0065F8761BB61006D0002455F8043B0134F1
:10148C009847A642F9D170BD000000000000000092
:10149C000000000000000000830730B548D0541E47
:1014AC00002A3FD00346CAB201E0013C3AD303F80C
:1014BC00012B9D07F9D1032C2DD9CDB245EA052579
:1014CC000F2C45EA054536D9A4F1100222F00F0C79
:1014DC0003F1200EE6444FEA121C03F1100242E91C
:1014EC00045542E9025510327245F8D10CF1010253
:1014FC0014F00C0F03EB021204F00F0C13D0ACF130
:10150C00040323F003030433134442F8045B9342B3
:10151C00FBD10CF003042CB1CAB21C4403F8012B10
:10152C009C42FBD130BD64461346002CF4D1F9E744
:10153C0003461446BFE71A46A446E0E7F8B500BFD9
:10154C00F8BC08BC9E467047F8B500BFF8BC08BC98
:04155C009E467047F0
:101560000000000000000000010203040607080953
:1015700002030405060708090A0B0C0D0E0F1010D4
:041580000102000064
:0C15840000127A000100000010000000BE
:040000050800041DCE
:00000001FF
